:1000000086C00000A2C00000A0C000009EC000008A
:100010009CC000009AC0000098C0000096C000007C
:1000200094C0000092C0000090C000008EC000008C
:100030008CC000008AC0000088C0000086C000009C
:1000400084C0000082C0000080C000007EC00000AC
:100050007CC000007AC0000078C0000076C00000BC
:1000600074C0000072C0000070C000006EC00000CC
:100070006CC000006AC0000068C0000066C00000DC
:1000800064C0000062C0000060C000000763423628
:10009000B79BD8A71A39685618AEBAAB558C1D3C19
:1000A000B7CC5763BD6DEDFD753EF6177231BF00DD
:1000B0000000803F08000000BE922449123EABAA17
:1000C000AA2ABECDCCCC4C3E00000080BEABAAAA72
:1000D000AA3E00000000BF000000803F00000000BA
:1000E00000084178D3BB4387D1133D190E3CC3BDF3
:1000F0004282AD2B3E68EC8276BED98FE1A93E4CA0
:1001000080EFFFBE01C4FF7F3F000000000011240C
:100110001FBECFEFD0E1DEBFCDBF11E0A0E0B1E068
:10012000E4E1F3E100E00BBF02C007900D92A634BA
:10013000B107D9F721E0A6E4B1E001C01D92A235D4
:10014000B207E1F739D20C9488095ACF8BBB969A43
:100150008FED9EE20197F1F700C000009698089598
:10016000949A9598F3DF94980895CF93DF93EC01D8
:100170008881882329F02196F3DF89918111FCCFB2
:10018000DF91CF9108959498959888E3DFDF88E315
:10019000DDDF8CE0DBDF86E0D9DF81E0D7CF0895BB
:1001A000CF93DF9300D0CDB7DEB790E8998390EC82
:1001B0009A83FE01E60FF11D9181890FC7DF0F9031
:1001C0000F90DF91CF91089581E0C0DF8FE39FE131
:1001D0000197F1F700C000000895949A9598969AB7
:1001E000E7ECF0E03197F1F700C000008BBB87EC43
:1001F00090E00197F1F700C0000096980895E1E6BD
:10020000F0E0808182608083E2E6F0E080818D7F93
:1002100080832FEF89EF90E0215080409040E1F7FC
:1002200000C000008081826080830895E1E6F0E0F4
:1002300080818D7F80830199FECF019BFECF019944
:10024000FECF089588E090E0019BFECF20EA2A953A
:10025000F1F7019B07C020914C01220F21602093F0
:100260004C0105C020914C01220F20934C010199B3
:10027000FECF019749F780914C010895369A349B3F
:10028000FECF24B185B190E0982F8827820F911D71
:1002900008959093900089B988E08AB908955D9B8C
:1002A000FECF8CB90895CF93DF93EC01888188232A
:1002B00029F02196F4DF89918111FCCFDF91CF9154
:1002C000089580E090E03EEF232F281B21BF9BBDC7
:1002D0008ABDEFE1FEE43197F1F700C0000001961E
:1002E0008E3F910589F78EEF90E09BBD8ABD11BED0
:1002F000FFEF24E38CE0F15020408040E1F700C0A4
:10030000000080E090E04EEF50E09A01281B390B8E
:100310003BBD2ABD99BD88BDEFE1FEE43197F1F701
:1003200000C0000001968E3F910579F71BBC1ABCF6
:100330008EEF90E099BD88BDFFEF24E38CE0F15093
:1003400020408040E1F700C000008EEF90E03EEFDB
:10035000232F281B99BD88BD21BFEFE1FEE4319713
:10036000F1F700C00000019799F78EEF81BF19BC2B
:1003700018BCFFEF24E38CE0F15020408040E1F70F
:1003800000C000000895CF93DF9300D000D01F92EB
:10039000CDB7DEB7F8DE81E090E016DF60E080E008
:1003A000FFDE8AE091E0E1DE61E080E0F9DE85E1F8
:1003B00091E0DBDE24DF3ADF45DF8093500142DF4E
:1003C00080934D013FDF80934F013CDF80935101CB
:1003D00039DF80934E01E0915001F0E090914D01A2
:1003E0009F01290F311D90914F01290F311D9091CF
:1003F0005101290F311D482F50E02417350739F0DE
:1004000060E080E0CDDE8DE191E0AFDE54C0F0939E
:100410004701E09346014AE0BE016F5F7F4FCF0185
:100420007BD460E08BE0BCDECE0101969EDE83E2F1
:1004300091E09BDE80914D014AE0BE016F5F7F4FEE
:1004400090E06AD4CE01019690DE85E291E08DDEE7
:1004500080914F0190E090934901809348014AE0D8
:10046000BE016F5F7F4F58D461E086E099DECE0118
:1004700001967BDE83E291E078DE809151014AE0D3
:10048000BE016F5F7F4F90E047D4CE0101966DDED5
:100490008FEDA3DE87E291E068DE80914E014AE0B5
:1004A000BE016F5F7F4F90E037D4CE0101965DDED5
:1004B00083E491E05ADE0F900F900F900F900F9011
:1004C000DF91CF910895EF92FF920F931F93CF93F7
:1004D000DF93CDB7DEB764970FB6F894DEBF0FBEDB
:1004E000CDBF51DE81E090E06FDE81E02FDEC6DE21
:1004F000BC01990F880B990BBBD19B01AC0160E04B
:1005000070EC8FE794E419D120E030E040EA50E449
:100510003BD220E030E040E251E4AAD02FE135E8C0
:100520004EE052E40AD12EED37E341E350EC8FD296
:1005300022E434E349EE52E427D267D1062F172F85
:100540007F936F938AE291E09F938F93CE01019600
:100550007C019F938F9303D481E0F8DD60E080E01D
:100560001FDE8DE291E001DE61E080E019DE8EE3C6
:1005700091E0FBDDC701F9DD9FEF23ED80E39150B2
:1005800020408040E1F700C0000000934A01109332
:100590004B010F900F900F900F900F900F9064965B
:1005A0000FB6F894DEBF0FBECDBFDF91CF911F9184
:1005B0000F91FF90EF900895CF93DF93CDB7DEB703
:1005C00064970FB6F894DEBF0FBECDBF8FEF81BB2F
:1005D0008ABB1092610087BB83E683BF81EA8FBD2F
:1005E00083E08EBD10927A0087E690E052DE87E8C5
:1005F00086B917B8C8DD81E090E0E6DD0F2EF0E0A7
:10060000EF2EF1E0FF2EF02D8E010F5F1F4F59DE10
:100610008FED9EE20197F1F700C00000B4DE9FEF7E
:1006200023E284EF915020408040E1F700C00000B9
:100630004ADF80914B018F9380914A018F93809183
:1006400047018F93809146018F93809149018F9349
:10065000809148018F93FF92EF921F930F937FD366
:10066000C80121DE0FB6F894DEBF0FBECDBFCFCFDD
:100670005058BB27AA270ED04DC13ED130F043D1F0
:1006800020F031F49F3F11F41EF433C10EF4E095D5
:10069000E7FB29C1E92F4FD180F3BA17620773072F
:1006A0008407950718F071F49EF567C10EF4E09584
:1006B0000B2EBA2FA02D0B01B90190010C01CA011C
:1006C000A0011124FF27591B99F0593F50F4503EC7
:1006D00068F11A16F040A22F232F342F4427585FB9
:1006E000F3CF469537952795A795F0405395C9F7D1
:1006F0007EF41F16BA0B620B730B840BBAF0915089
:10070000A1F0FF0FBB1F661F771F881FC2F70EC027
:10071000BA0F621F731F841F48F4879577956795FA
:10072000B795F7959E3F08F0B3CF9395880F08F0E3
:100730009927EE0F9795879508950CD0EBC0E3D0DD
:1007400040F0DAD030F021F45F3F19F0CCC0511105
:1007500015C1CFC0F0D098F39923C9F35523B1F355
:10076000951B550BBB27AA2762177307840738F020
:100770009F5F5F4F220F331F441FAA1FA9F333D07F
:100780000E2E3AF0E0E830D091505040E695001C33
:10079000CAF729D0FE2F27D0660F771F881FBB1FEF
:1007A000261737074807AB07B0E809F0BB0B802DC9
:1007B000BF01FF2793585F4F2AF09E3F510568F015
:1007C00092C0DCC05F3FECF3983EDCF386957795F2
:1007D0006795B795F7959F5FC9F7880F911D969517
:1007E000879597F90895E1E0660F771F881FBB1F73
:1007F000621773078407BA0720F0621B730B840B20
:10080000BA0BEE1F88F7E095089504D06894B111F3
:10081000B5C0089598D088F09F5790F0B92F9927C8
:10082000B751A0F0D1F0660F771F881F991F1AF0FB
:10083000BA95C9F712C0B13081F09FD0B1E00895E8
:100840009CC0672F782F8827B85F39F0B93FCCF369
:10085000869577956795B395D9F73EF490958095F1
:10086000709561957F4F8F4F9F4F0895E89409C011
:1008700097FB3EF490958095709561957F4F8F4FD3
:100880009F4F9923A9F0F92F96E9BB279395F695E9
:10089000879577956795B795F111F8CFFAF4BB0F67
:1008A00011F460FF1BC06F5F7F4F8F4F9F4F16C0CB
:1008B000882311F096E911C0772321F09EE8872F55
:1008C000762F05C0662371F096E8862F70E060E011
:1008D0002AF09A95660F771F881FDAF7880F96958A
:1008E000879597F9089597F99F6780E870E060E031
:1008F00008959FEF80EC089500240A9416161706B9
:1009000018060906089500240A9412161306140600
:1009100005060895092E0394000C11F4882352F063
:10092000BB0F40F4BF2B11F460FF04C06F5F7F4F1B
:100930008F4F9F4F089557FD9058440F551F59F002
:100940005F3F71F04795880F97FB991F61F09F3FBC
:1009500079F087950895121613061406551FF2CFE5
:100960004695F1DF08C0161617061806991FF1CF35
:1009700086957105610508940895E894BB2766275C
:100980007727CB0197F908950BD0C4CFB5DF28F0B6
:10099000BADF18F0952309F0A6CFABCF1124EECF24
:1009A000CADFA0F3959FD1F3950F50E0551F629FCA
:1009B000F001729FBB27F00DB11D639FAA27F00DB8
:1009C000B11DAA1F649F6627B00DA11D661F829FDF
:1009D0002227B00DA11D621F739FB00DA11D621FC4
:1009E000839FA00D611D221F749F3327A00D611DE1
:1009F000231F849F600D211D822F762F6A2F1124C3
:100A00009F5750408AF0E1F088234AF0EE0FFF1F15
:100A1000BB1F661F771F881F91505040A9F79E3F4C
:100A2000510570F060CFAACF5F3FECF3983EDCF346
:100A3000869577956795B795F795E7959F5FC1F789
:100A4000FE2B880F911D9695879597F90895FA01C9
:100A5000EE0FFF1F30962105310599F161157105E3
:100A600061F48038BFE39B0749F1689490388105B1
:100A700061F08038BFEF9B0741F0992342F5FF3FBB
:100A8000E1053105210511F1E8940894E795D901B4
:100A9000AA2329F4AB2FBE2FF85FD0F310C0FF5F5D
:100AA00070F4A695E0F7F73950F019F0FF3A38F4F2
:100AB0009F779F930CD00F9007FC905808953EF0BD
:100AC00018CF60E070E080E89FE308954FE79F77DC
:100AD0005F934F933F932F939ED02F913F914F91D0
:100AE0005F9152DF05C019F40EF0FDCE46CF01CF65
:100AF0002ADFC8F39638C0F707F80F92E8942BE383
:100B00003AEA48EB5FE74EDF0F920F920F924DB734
:100B10005EB70F92C0D0ECE8F0E016D04F915F9135
:100B2000EF91FF91E595EE1FFF1F49F0FE57E0683A
:100B30004427EE0F441FFA95E1F74195550B32D04B
:100B40000F9007FE26C00895DF93CF931F930F9356
:100B5000FF92EF92DF927B018C01689405C0DA2E40
:100B6000EF011EDFFE01E894A59125913591459195
:100B70005591AEF3EF018EDDFE019701A801DA94E5
:100B800079F7DF90EF90FF900F911F91CF91DF9158
:100B900008959B01AC0160E070E080E89FE3CDCD5B
:100BA000A2CEACC0D0DEE8F39923D9F3940F511D47
:100BB000BBF39150504094F059F0882332F0660F07
:100BC000771F881F91505040C1F79E3F510544F751
:100BD000880F911D9695879597F908955F3FACF022
:100BE000983E9CF0BB27869577956795B79508F456
:100BF000B1609395C1F7BB0F58F711F460FFE8CFD0
:100C00006F5F7F4F8F4F9F4FE3CFB8CE0EF076C010
:100C100070CE689468CE97DEC8F39923D1F3C6F3FB
:100C2000DF93CF931F930F93FF92C92FDD27882364
:100C30002AF02197660F771F881FDAF720E030E04F
:100C400040E85FEB9FE3883920F0803E30F021964A
:100C50008F770FDDE4EBF0E003C00BDDE1EEF0E0B9
:100C600073DF8B01BE01EC01FB2E6F577109759587
:100C7000771F880B990BFCDD28E132E741E35FE346
:100C80008FDEAF2D9801AE01FF900F911F91CF9194
:100C9000DF9100DD3FCEFA01DC01AA0FBB1F9B01F3
:100CA000AC01BF5728F422273327442750781FC0B0
:100CB000B75188F4AB2F0024469537952795011C32
:100CC000A395D2F3002069F0220F331F441FB39580
:100CD000DAF30DD0CDCC61307105A0E88A07B946B2
:100CE00030F49B01AC0166277727882790783096EF
:100CF00021F0208331834283538308959F3F31F055
:100D0000915020F4879577956795B795880F911D39
:100D10009695879597F90895BB274A3031F4992322
:100D200022F4BDE2909581959F4F01C0BB27FB0146
:100D30005527AA27880F991FAA1FA41710F0A41BD4
:100D400083955051B9F7A05DAA3308F0A95DA1932E
:100D5000009779F7B111B1931192CB0133C20F9380
:100D60001F93CF93DF93CDB7DEB72E970FB6F894CE
:100D7000DEBF0FBECDBF0D891E8986E08C831A832E
:100D800009838FEF9FE79E838D83AE01475E5F4FA0
:100D90006F89788DCE01019611D02F813885F801A9
:100DA000E20FF31F10822E960FB6F894DEBF0FBE2F
:100DB000CDBFDF91CF911F910F9108952F923F9258
:100DC0004F925F926F927F928F929F92AF92BF925B
:100DD000CF92DF92EF92FF920F931F93CF93DF9307
:100DE000CDB7DEB72C970FB6F894DEBF0FBECDBFE0
:100DF0007C016B018A01FC0117821682838181FFCD
:100E0000B0C1CE0101964C01F7019381F60193FD2B
:100E1000859193FF81916F01882309F49EC18532EA
:100E200039F493FD859193FF81916F01853221F40F
:100E3000B70190E0D7D1E8CF512C312C20E02032FF
:100E4000A0F48B3269F030F4803259F0833269F4C7
:100E500020612CC08D3239F0803339F4216026C0F6
:100E60002260246023C0286021C027FD27C030ED08
:100E7000380F3A3078F426FF06C0FAE05F9E300D56
:100E80001124532E13C08AE0389E300D1124332EC6
:100E900020620CC08E3221F426FD5FC1206406C0A2
:100EA0008C3611F4206802C0883641F4F60193FDB7
:100EB000859193FF81916F018111C1CF982F9F7D03
:100EC0009554933028F40C5F1F4FFFE3F9830DC056
:100ED000833631F0833771F0833509F057C021C074
:100EE000F801808189830E5F1F4F44244394512C65
:100EF000540114C03801F2E06F0E711CF801A0809B
:100F0000B18026FF03C0652D70E002C06FEF7FEF58
:100F1000C5012C874CD12C0183012C852F77222EE3
:100F200016C03801F2E06F0E711CF801A080B1808C
:100F300026FF03C0652D70E002C06FEF7FEFC50193
:100F40002C872AD12C012C852068222E830123FC9A
:100F500019C0832D90E048165906A0F4B70180E22D
:100F600090E040D13A94F5CFF50127FC859127FE1A
:100F700081915F01B70190E035D131103A94F1E0F1
:100F80004F1A51084114510479F7DEC0843611F02C
:100F9000893631F5F80127FF07C0608171818281B0
:100FA00093810C5F1F4F08C060817181072E000C78
:100FB000880B990B0E5F1F4F2F76722E97FF09C07B
:100FC00090958095709561957F4F8F4F9F4F2068CA
:100FD000722E2AE030E0A4013DD1A82EA81843C00B
:100FE000853729F42F7EB22E2AE030E025C0F22F7B
:100FF000F97FBF2E8F36C1F018F4883579F0ADC077
:10100000803719F0883721F0A8C02F2F2061B22E29
:10101000B4FE0DC08B2D8460B82E09C024FF0AC019
:101020009F2F9660B92E06C028E030E005C020E171
:1010300030E002C020E132E0F801B7FE07C0608175
:101040007181828193810C5F1F4F06C06081718125
:1010500080E090E00E5F1F4FA401FCD0A82EA818DE
:10106000FB2DFF777F2E76FE0BC0372D3E7FA5141C
:1010700050F474FE0AC072FC08C0372D3E7E05C0D5
:10108000BA2C372D03C0BA2C01C0B52C34FF0DC0CB
:10109000FE01EA0DF11D8081803311F4397E09C013
:1010A00032FF06C0B394B39404C0832F867809F04E
:1010B000B39433FD12C030FF06C05A2CB31418F499
:1010C000530C5B18B32CB31460F4B70180E290E0CA
:1010D0003C8788D0B3943C85F6CFB31410F43B180A
:1010E00001C0312C34FF11C0B70180E390E03C8790
:1010F00079D03C8532FF16C031FD03C088E790E00F
:1011000002C088E590E0B7010CC0832F867851F0CB
:1011100031FF02C08BE201C080E237FD8DE2B701F2
:1011200090E060D0A51430F4B70180E390E05AD08D
:101130005A94F8CFAA94F401EA0DF11D8081B70109
:1011400090E050D0A110F6CF332009F45DCEB70166
:1011500080E290E047D03A94F7CFF70186819781FB
:1011600002C08FEF9FEF2C960FB6F894DEBF0FBE34
:10117000CDBFDF91CF911F910F91FF90EF90DF9046
:10118000CF90BF90AF909F908F907F906F905F9027
:101190004F903F902F900895FC0105906150704052
:1011A0000110D8F7809590958E0F9F1F0895FC0130
:1011B0006150704001900110D8F7809590958E0F86
:1011C0009F1F0895DC01FC01672F71917723E1F7E0
:1011D000329704C07C916D9370836291AE17BF0704
:1011E000C8F308950F931F93CF93DF93FB012381DF
:1011F00021FD03C08FEF9FEF28C022FF16C046815C
:101200005781248135814217530744F4A081B1816D
:101210009D012F5F3F4F318320838C93268137813F
:101220002F5F3F4F3783268310C0EB01092F182F04
:101230000084F185E02D0995892BE1F68E819F814F
:1012400001969F838E83812F902FDF91CF911F91E5
:101250000F910895FA01AA27283051F1203181F128
:10126000E8946F936E7F6E5F7F4F8F4F9F4FAF4FAE
:10127000B1E03ED0B4E03CD0670F781F891F9A1FC1
:10128000A11D680F791F8A1F911DA11D6A0F711D75
:10129000811D911DA11D20D009F468943F912AE081
:1012A000269F11243019305D3193DEF6CF01089569
:1012B000462F4770405D4193B3E00FD0C9F7F6CF9A
:1012C000462F4F70405D4A3318F0495D31FD405262
:1012D000419302D0A9F7EACFB4E0A69597958795F8
:1012E00077956795BA95C9F70097610571050895D7
:1012F0009B01AC010A2E0694579547953795279583
:10130000BA95C9F7620F731F841F951FA01D08951A
:04131000F894FFCF7F
:101314002564202564202564000048756D6964698E
:101324007479203D0054656D70203D200045727233
:101334006F72002E002500432000256400206465A0
:101344006E73697479206F6620434F322000202029
:0613540020202020000013
:00000001FF
